{
  "contractName": "ChainList",
  "abi": [
    {
      "constant": true,
      "inputs": [
        {
          "name": "",
          "type": "uint256"
        }
      ],
      "name": "articles",
      "outputs": [
        {
          "name": "id",
          "type": "uint256"
        },
        {
          "name": "seller",
          "type": "address"
        },
        {
          "name": "buyer",
          "type": "address"
        },
        {
          "name": "name",
          "type": "string"
        },
        {
          "name": "description",
          "type": "string"
        },
        {
          "name": "price",
          "type": "uint256"
        },
        {
          "name": "duration",
          "type": "uint256"
        }
      ],
      "payable": false,
      "stateMutability": "view",
      "type": "function"
    },
    {
      "anonymous": false,
      "inputs": [
        {
          "indexed": true,
          "name": "_id",
          "type": "uint256"
        },
        {
          "indexed": true,
          "name": "_seller",
          "type": "address"
        },
        {
          "indexed": false,
          "name": "_name",
          "type": "string"
        },
        {
          "indexed": false,
          "name": "_price",
          "type": "uint256"
        },
        {
          "indexed": false,
          "name": "_duration",
          "type": "uint256"
        }
      ],
      "name": "LogSellArticle",
      "type": "event"
    },
    {
      "anonymous": false,
      "inputs": [
        {
          "indexed": true,
          "name": "_id",
          "type": "uint256"
        },
        {
          "indexed": true,
          "name": "_seller",
          "type": "address"
        },
        {
          "indexed": true,
          "name": "_buyer",
          "type": "address"
        },
        {
          "indexed": false,
          "name": "_name",
          "type": "string"
        },
        {
          "indexed": false,
          "name": "_price",
          "type": "uint256"
        },
        {
          "indexed": false,
          "name": "_duration",
          "type": "uint256"
        }
      ],
      "name": "LogBuyArticle",
      "type": "event"
    },
    {
      "constant": false,
      "inputs": [
        {
          "name": "_name",
          "type": "string"
        },
        {
          "name": "_description",
          "type": "string"
        },
        {
          "name": "_price",
          "type": "uint256"
        },
        {
          "name": "_duration",
          "type": "uint256"
        }
      ],
      "name": "sellArticle",
      "outputs": [],
      "payable": false,
      "stateMutability": "nonpayable",
      "type": "function"
    },
    {
      "constant": true,
      "inputs": [],
      "name": "getNumberOfArticles",
      "outputs": [
        {
          "name": "",
          "type": "uint256"
        }
      ],
      "payable": false,
      "stateMutability": "view",
      "type": "function"
    },
    {
      "constant": true,
      "inputs": [],
      "name": "getArticlesForSale",
      "outputs": [
        {
          "name": "",
          "type": "uint256[]"
        }
      ],
      "payable": false,
      "stateMutability": "view",
      "type": "function"
    },
    {
      "constant": false,
      "inputs": [
        {
          "name": "_id",
          "type": "uint256"
        }
      ],
      "name": "buyArticle",
      "outputs": [],
      "payable": true,
      "stateMutability": "payable",
      "type": "function"
    }
  ],
  "bytecode": "0x608060405234801561001057600080fd5b50610cb7806100206000396000f30060806040526004361061006d576000357c0100000000000000000000000000000000000000000000000000000000900463ffffffff1680631cc4baa81461007257806322657bf8146100925780637f6be3da1461015557806389da85d3146101c1578063edcfafe6146101ec575b600080fd5b61009060048036038101908080359060200190929190505050610379565b005b34801561009e57600080fd5b50610153600480360381019080803590602001908201803590602001908080601f0160208091040260200160405190810160405280939291908181526020018383808284378201915050505050509192919290803590602001908201803590602001908080601f01602080910402602001604051908101604052809392919081815260200183838082843782019150505050505091929192908035906020019092919080359060200190929190505050610673565b005b34801561016157600080fd5b5061016a6108b1565b6040518080602001828103825283818151815260200191508051906020019060200280838360005b838110156101ad578082015181840152602081019050610192565b505050509050019250505060405180910390f35b3480156101cd57600080fd5b506101d6610a2a565b6040518082815260200191505060405180910390f35b3480156101f857600080fd5b5061021760048036038101908080359060200190929190505050610a34565b604051808881526020018773ffffffffffffffffffffffffffffffffffffffff1673ffffffffffffffffffffffffffffffffffffffff1681526020018673ffffffffffffffffffffffffffffffffffffffff1673ffffffffffffffffffffffffffffffffffffffff1681526020018060200180602001858152602001848152602001838103835287818151815260200191508051906020019080838360005b838110156102d15780820151818401526020810190506102b6565b50505050905090810190601f1680156102fe5780820380516001836020036101000a031916815260200191505b50838103825286818151815260200191508051906020019080838360005b8381101561033757808201518184015260208101905061031c565b50505050905090810190601f1680156103645780820380516001836020036101000a031916815260200191505b50995050505050505050505060405180910390f35b60008060015411151561038b57600080fd5b60008211801561039d57506001548211155b15156103a857600080fd5b600080838152602001908152602001600020905060008160020160009054906101000a900473ffffffffffffffffffffffffffffffffffffffff1673ffffffffffffffffffffffffffffffffffffffff1614151561040557600080fd5b8060010160009054906101000a900473ffffffffffffffffffffffffffffffffffffffff1673ffffffffffffffffffffffffffffffffffffffff163373ffffffffffffffffffffffffffffffffffffffff161415151561046457600080fd5b80600501543414151561047657600080fd5b338160020160006101000a81548173ffffffffffffffffffffffffffffffffffffffff021916908373ffffffffffffffffffffffffffffffffffffffff1602179055508060010160009054906101000a900473ffffffffffffffffffffffffffffffffffffffff1673ffffffffffffffffffffffffffffffffffffffff166108fc349081150290604051600060405180830381858888f19350505050158015610523573d6000803e3d6000fd5b508060020160009054906101000a900473ffffffffffffffffffffffffffffffffffffffff1673ffffffffffffffffffffffffffffffffffffffff168160010160009054906101000a900473ffffffffffffffffffffffffffffffffffffffff1673ffffffffffffffffffffffffffffffffffffffff16837fbb2c9d6ac7b452e3efd4db442cea3f38ae2e47080e1e861cf4ba7581d41217f18460030185600501548660060154604051808060200184815260200183815260200182810382528581815460018160011615610100020316600290048152602001915080546001816001161561010002031660029004801561065f5780601f106106345761010080835404028352916020019161065f565b820191906000526020600020905b81548152906001019060200180831161064257829003601f168201915b505094505050505060405180910390a45050565b60016000815480929190600101919050555060e06040519081016040528060015481526020013373ffffffffffffffffffffffffffffffffffffffff168152602001600073ffffffffffffffffffffffffffffffffffffffff1681526020018581526020018481526020018381526020018281525060008060015481526020019081526020016000206000820151816000015560208201518160010160006101000a81548173ffffffffffffffffffffffffffffffffffffffff021916908373ffffffffffffffffffffffffffffffffffffffff16021790555060408201518160020160006101000a81548173ffffffffffffffffffffffffffffffffffffffff021916908373ffffffffffffffffffffffffffffffffffffffff16021790555060608201518160030190805190602001906107b0929190610be6565b5060808201518160040190805190602001906107cd929190610be6565b5060a0820151816005015560c082015181600601559050503373ffffffffffffffffffffffffffffffffffffffff166001547fe3ea949ca5441703d74a21d1c73ba69e3c1666e633158fcb471867e078c53c298685856040518080602001848152602001838152602001828103825285818151815260200191508051906020019080838360005b8381101561086f578082015181840152602081019050610854565b50505050905090810190601f16801561089c5780820380516001836020036101000a031916815260200191505b5094505050505060405180910390a350505050565b606080600080606060006001546040519080825280602002602001820160405280156108ec5781602001602082028038833980820191505090505b50945060009350600192505b6001548311151561099f57600080600085815260200190815260200160002060020160009054906101000a900473ffffffffffffffffffffffffffffffffffffffff1673ffffffffffffffffffffffffffffffffffffffff1614156109925760008084815260200190815260200160002060000154858581518110151561097b57fe5b906020019060200201818152505083806001019450505b82806001019350506108f8565b836040519080825280602002602001820160405280156109ce5781602001602082028038833980820191505090505b509150600090505b83811015610a1f5784818151811015156109ec57fe5b906020019060200201518282815181101515610a0457fe5b906020019060200201818152505080806001019150506109d6565b819550505050505090565b6000600154905090565b60006020528060005260406000206000915090508060000154908060010160009054906101000a900473ffffffffffffffffffffffffffffffffffffffff16908060020160009054906101000a900473ffffffffffffffffffffffffffffffffffffffff1690806003018054600181600116156101000203166002900480601f016020809104026020016040519081016040528092919081815260200182805460018160011615610100020316600290048015610b325780601f10610b0757610100808354040283529160200191610b32565b820191906000526020600020905b815481529060010190602001808311610b1557829003601f168201915b505050505090806004018054600181600116156101000203166002900480601f016020809104026020016040519081016040528092919081815260200182805460018160011615610100020316600290048015610bd05780601f10610ba557610100808354040283529160200191610bd0565b820191906000526020600020905b815481529060010190602001808311610bb357829003601f168201915b5050505050908060050154908060060154905087565b828054600181600116156101000203166002900490600052602060002090601f016020900481019282601f10610c2757805160ff1916838001178555610c55565b82800160010185558215610c55579182015b82811115610c54578251825591602001919060010190610c39565b5b509050610c629190610c66565b5090565b610c8891905b80821115610c84576000816000905550600101610c6c565b5090565b905600a165627a7a72305820c731c0a03cbc8537c12d47586b5a5f765a42b982a16c88bc4c13bfee3db6e9340029",
  "source": "pragma solidity ^0.4.18;\n\ncontract ChainList {\n  // custom types\n  struct Article {\n    uint id;\n    address seller;\n    address buyer;\n    string name;\n    string description;\n    uint256 price;\n    uint256 duration;\n  }\n\n  // state variables\n  mapping (uint => Article) public articles;\n  uint articleCounter;\n\n  // events\n  event LogSellArticle(\n    uint indexed _id,\n    address indexed _seller,\n    string _name,\n    uint256 _price,\n    uint256 _duration\n  );\n  event LogBuyArticle(\n    uint indexed _id,\n    address indexed _seller,\n    address indexed _buyer,\n    string _name,\n    uint256 _price,\n    uint256 _duration\n  );\n\n  // sell an article\n  function sellArticle(string _name, string _description, uint256 _price, uint256 _duration) public {\n    // a new article\n    articleCounter++;\n\n    // store this article\n    articles[articleCounter] = Article(\n      articleCounter,\n      msg.sender,\n      0x0,\n      _name,\n      _description,\n      _price,\n      _duration\n    );\n\n  emit LogSellArticle(articleCounter, msg.sender, _name, _price, _duration);\n  }\n\n  // fetch the number of articles in the contract\n  function getNumberOfArticles() public view returns (uint) {\n    return articleCounter;\n  }\n\n  // fetch and return all article IDs for articles still for sale\n  function getArticlesForSale() public view returns (uint[]) {\n    // prepare output array\n    uint[] memory articleIds = new uint[](articleCounter);\n\n    uint numberOfArticlesForSale = 0;\n    // iterate over articles\n    for(uint i = 1; i <= articleCounter;  i++) {\n      // keep the ID if the article is still for sale\n      if(articles[i].buyer == 0x0) {\n        articleIds[numberOfArticlesForSale] = articles[i].id;\n        numberOfArticlesForSale++;\n      }\n    }\n\n    // copy the articleIds array into a smaller forSale array\n    uint[] memory forSale = new uint[](numberOfArticlesForSale);\n    for(uint j = 0; j < numberOfArticlesForSale; j++) {\n      forSale[j] = articleIds[j];\n    }\n    return forSale;\n  }\n\n  // buy an article\n  function buyArticle(uint _id) payable public {\n    // we check whether there is an article for sale\n    require(articleCounter > 0);\n\n    // we check that the article exists\n    require(_id > 0 && _id <= articleCounter);\n\n    // we retrieve the article\n    Article storage article = articles[_id];\n\n    // we check that the article has not been sold yet\n    require(article.buyer == 0X0);\n\n    // we don't allow the seller to buy his own article\n    require(msg.sender != article.seller);\n\n    // we check that the value sent corresponds to the price of the article\n    require(msg.value == article.price);\n\n    // keep buyer's information\n    article.buyer = msg.sender;\n\n    // the buyer can pay the seller\n    article.seller.transfer(msg.value);\n\n    // trigger the event\n    emit LogBuyArticle(_id, article.seller, article.buyer, article.name, article.price, article.duration);\n  }\n}\n",
  "sourcePath": "C:\\Users\\user\\blockchain\\prototype1.0\\contracts\\ChainList.sol",
  "compiler": {
    "name": "solc",
    "version": "0.4.25+commit.59dbf8f1.Emscripten.clang"
  },
  "schemaVersion": "2.0.2",
  "updatedAt": "2019-08-15T12:21:57.735Z"
}